{
  "contractName": "TestToken",
  "abi": [
    {
      "inputs": [],
      "stateMutability": "nonpayable",
      "type": "constructor"
    },
    {
      "inputs": [
        {
          "internalType": "address",
          "name": "spender",
          "type": "address"
        },
        {
          "internalType": "uint256",
          "name": "allowance",
          "type": "uint256"
        },
        {
          "internalType": "uint256",
          "name": "needed",
          "type": "uint256"
        }
      ],
      "name": "ERC20InsufficientAllowance",
      "type": "error"
    },
    {
      "inputs": [
        {
          "internalType": "address",
          "name": "sender",
          "type": "address"
        },
        {
          "internalType": "uint256",
          "name": "balance",
          "type": "uint256"
        },
        {
          "internalType": "uint256",
          "name": "needed",
          "type": "uint256"
        }
      ],
      "name": "ERC20InsufficientBalance",
      "type": "error"
    },
    {
      "inputs": [
        {
          "internalType": "address",
          "name": "approver",
          "type": "address"
        }
      ],
      "name": "ERC20InvalidApprover",
      "type": "error"
    },
    {
      "inputs": [
        {
          "internalType": "address",
          "name": "receiver",
          "type": "address"
        }
      ],
      "name": "ERC20InvalidReceiver",
      "type": "error"
    },
    {
      "inputs": [
        {
          "internalType": "address",
          "name": "sender",
          "type": "address"
        }
      ],
      "name": "ERC20InvalidSender",
      "type": "error"
    },
    {
      "inputs": [
        {
          "internalType": "address",
          "name": "spender",
          "type": "address"
        }
      ],
      "name": "ERC20InvalidSpender",
      "type": "error"
    },
    {
      "anonymous": false,
      "inputs": [
        {
          "indexed": true,
          "internalType": "address",
          "name": "owner",
          "type": "address"
        },
        {
          "indexed": true,
          "internalType": "address",
          "name": "spender",
          "type": "address"
        },
        {
          "indexed": false,
          "internalType": "uint256",
          "name": "value",
          "type": "uint256"
        }
      ],
      "name": "Approval",
      "type": "event"
    },
    {
      "anonymous": false,
      "inputs": [
        {
          "indexed": true,
          "internalType": "address",
          "name": "from",
          "type": "address"
        },
        {
          "indexed": true,
          "internalType": "address",
          "name": "to",
          "type": "address"
        },
        {
          "indexed": false,
          "internalType": "uint256",
          "name": "value",
          "type": "uint256"
        }
      ],
      "name": "Transfer",
      "type": "event"
    },
    {
      "inputs": [
        {
          "internalType": "address",
          "name": "owner",
          "type": "address"
        },
        {
          "internalType": "address",
          "name": "spender",
          "type": "address"
        }
      ],
      "name": "allowance",
      "outputs": [
        {
          "internalType": "uint256",
          "name": "",
          "type": "uint256"
        }
      ],
      "stateMutability": "view",
      "type": "function",
      "constant": true
    },
    {
      "inputs": [
        {
          "internalType": "address",
          "name": "spender",
          "type": "address"
        },
        {
          "internalType": "uint256",
          "name": "value",
          "type": "uint256"
        }
      ],
      "name": "approve",
      "outputs": [
        {
          "internalType": "bool",
          "name": "",
          "type": "bool"
        }
      ],
      "stateMutability": "nonpayable",
      "type": "function"
    },
    {
      "inputs": [
        {
          "internalType": "address",
          "name": "account",
          "type": "address"
        }
      ],
      "name": "balanceOf",
      "outputs": [
        {
          "internalType": "uint256",
          "name": "",
          "type": "uint256"
        }
      ],
      "stateMutability": "view",
      "type": "function",
      "constant": true
    },
    {
      "inputs": [],
      "name": "decimals",
      "outputs": [
        {
          "internalType": "uint8",
          "name": "",
          "type": "uint8"
        }
      ],
      "stateMutability": "view",
      "type": "function",
      "constant": true
    },
    {
      "inputs": [
        {
          "internalType": "address",
          "name": "",
          "type": "address"
        }
      ],
      "name": "hasClaimed",
      "outputs": [
        {
          "internalType": "bool",
          "name": "",
          "type": "bool"
        }
      ],
      "stateMutability": "view",
      "type": "function",
      "constant": true
    },
    {
      "inputs": [],
      "name": "name",
      "outputs": [
        {
          "internalType": "string",
          "name": "",
          "type": "string"
        }
      ],
      "stateMutability": "view",
      "type": "function",
      "constant": true
    },
    {
      "inputs": [],
      "name": "owner",
      "outputs": [
        {
          "internalType": "address",
          "name": "",
          "type": "address"
        }
      ],
      "stateMutability": "view",
      "type": "function",
      "constant": true
    },
    {
      "inputs": [],
      "name": "symbol",
      "outputs": [
        {
          "internalType": "string",
          "name": "",
          "type": "string"
        }
      ],
      "stateMutability": "view",
      "type": "function",
      "constant": true
    },
    {
      "inputs": [],
      "name": "totalSupply",
      "outputs": [
        {
          "internalType": "uint256",
          "name": "",
          "type": "uint256"
        }
      ],
      "stateMutability": "view",
      "type": "function",
      "constant": true
    },
    {
      "inputs": [
        {
          "internalType": "address",
          "name": "to",
          "type": "address"
        },
        {
          "internalType": "uint256",
          "name": "value",
          "type": "uint256"
        }
      ],
      "name": "transfer",
      "outputs": [
        {
          "internalType": "bool",
          "name": "",
          "type": "bool"
        }
      ],
      "stateMutability": "nonpayable",
      "type": "function"
    },
    {
      "inputs": [
        {
          "internalType": "address",
          "name": "from",
          "type": "address"
        },
        {
          "internalType": "address",
          "name": "to",
          "type": "address"
        },
        {
          "internalType": "uint256",
          "name": "value",
          "type": "uint256"
        }
      ],
      "name": "transferFrom",
      "outputs": [
        {
          "internalType": "bool",
          "name": "",
          "type": "bool"
        }
      ],
      "stateMutability": "nonpayable",
      "type": "function"
    },
    {
      "inputs": [],
      "name": "faucet",
      "outputs": [],
      "stateMutability": "nonpayable",
      "type": "function"
    }
  ],
  "bytecode": "0x60806040523480156200001157600080fd5b506040518060400160405280600981526020017f54657374546f6b656e00000000000000000000000000000000000000000000008152506040518060400160405280600381526020017f545354000000000000000000000000000000000000000000000000000000000081525081600390816200008f91906200068b565b508060049081620000a191906200068b565b50505033600560006101000a81548173ffffffffffffffffffffffffffffffffffffffff021916908373ffffffffffffffffffffffffffffffffffffffff1602179055506200013633620001036200013c640100000000026401000000009004565b600a62000111919062000902565b620f424062000121919062000953565b62000145640100000000026401000000009004565b62000aa6565b60006012905090565b600073ffffffffffffffffffffffffffffffffffffffff168273ffffffffffffffffffffffffffffffffffffffff1603620001ba5760006040517fec442f05000000000000000000000000000000000000000000000000000000008152600401620001b19190620009e3565b60405180910390fd5b620001d760008383620001db640100000000026401000000009004565b5050565b600073ffffffffffffffffffffffffffffffffffffffff168373ffffffffffffffffffffffffffffffffffffffff16036200023157806002600082825462000224919062000a00565b9250508190555062000307565b60008060008573ffffffffffffffffffffffffffffffffffffffff1673ffffffffffffffffffffffffffffffffffffffff16815260200190815260200160002054905081811015620002c0578381836040517fe450d38c000000000000000000000000000000000000000000000000000000008152600401620002b79392919062000a4c565b60405180910390fd5b8181036000808673ffffffffffffffffffffffffffffffffffffffff1673ffffffffffffffffffffffffffffffffffffffff16815260200190815260200160002081905550505b600073ffffffffffffffffffffffffffffffffffffffff168273ffffffffffffffffffffffffffffffffffffffff16036200035257806002600082825403925050819055506200039f565b806000808473ffffffffffffffffffffffffffffffffffffffff1673ffffffffffffffffffffffffffffffffffffffff168152602001908152602001600020600082825401925050819055505b8173ffffffffffffffffffffffffffffffffffffffff168373ffffffffffffffffffffffffffffffffffffffff167fddf252ad1be2c89b69c2b068fc378daa952ba7f163c4a11628f55a4df523b3ef83604051620003fe919062000a89565b60405180910390a3505050565b600081519050919050565b7f4e487b7100000000000000000000000000000000000000000000000000000000600052604160045260246000fd5b7f4e487b7100000000000000000000000000000000000000000000000000000000600052602260045260246000fd5b600060028204905060018216806200048d57607f821691505b602082108103620004a357620004a262000445565b5b50919050565b60008190508160005260206000209050919050565b60006020601f8301049050919050565b60008160020a8302905092915050565b600060088302620005107fffffffffffffffffffffffffffffffffffffffffffffffffffffffffffffffff82620004ce565b6200051c8683620004ce565b95508019841693508086168417925050509392505050565b6000819050919050565b6000819050919050565b600062000569620005636200055d8462000534565b6200053e565b62000534565b9050919050565b6000819050919050565b620005858362000548565b6200059d620005948262000570565b848454620004de565b825550505050565b600090565b620005b4620005a5565b620005c18184846200057a565b505050565b5b81811015620005e957620005dd600082620005aa565b600181019050620005c7565b5050565b601f82111562000638576200060281620004a9565b6200060d84620004be565b810160208510156200061d578190505b620006356200062c85620004be565b830182620005c6565b50505b505050565b60008160020a8304905092915050565b600062000660600019846008026200063d565b1980831691505092915050565b60006200067b83836200064d565b9150826002028217905092915050565b62000696826200040b565b67ffffffffffffffff811115620006b257620006b162000416565b5b620006be825462000474565b620006cb828285620005ed565b600060209050601f831160018114620007035760008415620006ee578287015190505b620006fa85826200066d565b8655506200076a565b601f1984166200071386620004a9565b60005b828110156200073d5784890151825560018201915060208501945060208101905062000716565b868310156200075d578489015162000759601f8916826200064d565b8355505b6001600288020188555050505b505050505050565b7f4e487b7100000000000000000000000000000000000000000000000000000000600052601160045260246000fd5b6000600282049050919050565b6000808291508390505b60018511156200080057808604811115620007d857620007d762000772565b5b6001851615620007e85780820291505b8081029050620007f885620007a1565b9450620007b8565b94509492505050565b6000826200081b5760019050620008ee565b816200082b5760009050620008ee565b81600181146200084457600281146200084f5762000885565b6001915050620008ee565b60ff84111562000864576200086362000772565b5b8360020a9150848211156200087e576200087d62000772565b5b50620008ee565b5060208310610133831016604e8410600b8410161715620008bf5782820a905083811115620008b957620008b862000772565b5b620008ee565b620008ce8484846001620007ae565b92509050818404811115620008e857620008e762000772565b5b81810290505b9392505050565b600060ff82169050919050565b60006200090f8262000534565b91506200091c83620008f5565b92506200094b7fffffffffffffffffffffffffffffffffffffffffffffffffffffffffffffffff848462000809565b905092915050565b6000620009608262000534565b91506200096d8362000534565b92508282026200097d8162000534565b9150828204841483151762000997576200099662000772565b5b5092915050565b600073ffffffffffffffffffffffffffffffffffffffff82169050919050565b6000620009cb826200099e565b9050919050565b620009dd81620009be565b82525050565b6000602082019050620009fa6000830184620009d2565b92915050565b600062000a0d8262000534565b915062000a1a8362000534565b925082820190508082111562000a355762000a3462000772565b5b92915050565b62000a468162000534565b82525050565b600060608201905062000a636000830186620009d2565b62000a72602083018562000a3b565b62000a81604083018462000a3b565b949350505050565b600060208201905062000aa0600083018462000a3b565b92915050565b6112918062000ab66000396000f3fe608060405234801561001057600080fd5b50600436106100d1576000357c01000000000000000000000000000000000000000000000000000000009004806373b2e80e1161008e57806373b2e80e146101c05780638da5cb5b146101f057806395d89b411461020e578063a9059cbb1461022c578063dd62ed3e1461025c578063de5f72fd1461028c576100d1565b806306fdde03146100d6578063095ea7b3146100f457806318160ddd1461012457806323b872dd14610142578063313ce5671461017257806370a0823114610190575b600080fd5b6100de610296565b6040516100eb9190610cb9565b60405180910390f35b61010e60048036038101906101099190610d74565b610328565b60405161011b9190610dcf565b60405180910390f35b61012c61034b565b6040516101399190610df9565b60405180910390f35b61015c60048036038101906101579190610e14565b610355565b6040516101699190610dcf565b60405180910390f35b61017a610384565b6040516101879190610e83565b60405180910390f35b6101aa60048036038101906101a59190610e9e565b61038d565b6040516101b79190610df9565b60405180910390f35b6101da60048036038101906101d59190610e9e565b6103d5565b6040516101e79190610dcf565b60405180910390f35b6101f86103f5565b6040516102059190610eda565b60405180910390f35b61021661041b565b6040516102239190610cb9565b60405180910390f35b61024660048036038101906102419190610d74565b6104ad565b6040516102539190610dcf565b60405180910390f35b61027660048036038101906102719190610ef5565b6104d0565b6040516102839190610df9565b60405180910390f35b610294610557565b005b6060600380546102a590610f64565b80601f01602080910402602001604051908101604052809291908181526020018280546102d190610f64565b801561031e5780601f106102f35761010080835404028352916020019161031e565b820191906000526020600020905b81548152906001019060200180831161030157829003601f168201915b5050505050905090565b60008061033361068a565b9050610340818585610692565b600191505092915050565b6000600254905090565b60008061036061068a565b905061036d8582856106a4565b610378858585610739565b60019150509392505050565b60006012905090565b60008060008373ffffffffffffffffffffffffffffffffffffffff1673ffffffffffffffffffffffffffffffffffffffff168152602001908152602001600020549050919050565b60066020528060005260406000206000915054906101000a900460ff1681565b600560009054906101000a900473ffffffffffffffffffffffffffffffffffffffff1681565b60606004805461042a90610f64565b80601f016020809104026020016040519081016040528092919081815260200182805461045690610f64565b80156104a35780601f10610478576101008083540402835291602001916104a3565b820191906000526020600020905b81548152906001019060200180831161048657829003601f168201915b5050505050905090565b6000806104b861068a565b90506104c5818585610739565b600191505092915050565b6000600160008473ffffffffffffffffffffffffffffffffffffffff1673ffffffffffffffffffffffffffffffffffffffff16815260200190815260200160002060008373ffffffffffffffffffffffffffffffffffffffff1673ffffffffffffffffffffffffffffffffffffffff16815260200190815260200160002054905092915050565b600660003373ffffffffffffffffffffffffffffffffffffffff1673ffffffffffffffffffffffffffffffffffffffff16815260200190815260200160002060009054906101000a900460ff16156105e4576040517f08c379a00000000000000000000000000000000000000000000000000000000081526004016105db90610fe1565b60405180910390fd5b610630600560009054906101000a900473ffffffffffffffffffffffffffffffffffffffff1633610613610384565b600a61061f9190611163565b606461062b91906111ae565b610739565b6001600660003373ffffffffffffffffffffffffffffffffffffffff1673ffffffffffffffffffffffffffffffffffffffff16815260200190815260200160002060006101000a81548160ff021916908315150217905550565b600033905090565b61069f838383600161082d565b505050565b60006106b084846104d0565b90507fffffffffffffffffffffffffffffffffffffffffffffffffffffffffffffffff8110156107335781811015610723578281836040517ffb8f41b200000000000000000000000000000000000000000000000000000000815260040161071a939291906111f0565b60405180910390fd5b6107328484848403600061082d565b5b50505050565b600073ffffffffffffffffffffffffffffffffffffffff168373ffffffffffffffffffffffffffffffffffffffff16036107ab5760006040517f96c6fd1e0000000000000000000000000000000000000000000000000000000081526004016107a29190610eda565b60405180910390fd5b600073ffffffffffffffffffffffffffffffffffffffff168273ffffffffffffffffffffffffffffffffffffffff160361081d5760006040517fec442f050000000000000000000000000000000000000000000000000000000081526004016108149190610eda565b60405180910390fd5b610828838383610a04565b505050565b600073ffffffffffffffffffffffffffffffffffffffff168473ffffffffffffffffffffffffffffffffffffffff160361089f5760006040517fe602df050000000000000000000000000000000000000000000000000000000081526004016108969190610eda565b60405180910390fd5b600073ffffffffffffffffffffffffffffffffffffffff168373ffffffffffffffffffffffffffffffffffffffff16036109115760006040517f94280d620000000000000000000000000000000000000000000000000000000081526004016109089190610eda565b60405180910390fd5b81600160008673ffffffffffffffffffffffffffffffffffffffff1673ffffffffffffffffffffffffffffffffffffffff16815260200190815260200160002060008573ffffffffffffffffffffffffffffffffffffffff1673ffffffffffffffffffffffffffffffffffffffff1681526020019081526020016000208190555080156109fe578273ffffffffffffffffffffffffffffffffffffffff168473ffffffffffffffffffffffffffffffffffffffff167f8c5be1e5ebec7d5bd14f71427d1e84f3dd0314c0f7b2291e5b200ac8c7c3b925846040516109f59190610df9565b60405180910390a35b50505050565b600073ffffffffffffffffffffffffffffffffffffffff168373ffffffffffffffffffffffffffffffffffffffff1603610a56578060026000828254610a4a9190611227565b92505081905550610b29565b60008060008573ffffffffffffffffffffffffffffffffffffffff1673ffffffffffffffffffffffffffffffffffffffff16815260200190815260200160002054905081811015610ae2578381836040517fe450d38c000000000000000000000000000000000000000000000000000000008152600401610ad9939291906111f0565b60405180910390fd5b8181036000808673ffffffffffffffffffffffffffffffffffffffff1673ffffffffffffffffffffffffffffffffffffffff16815260200190815260200160002081905550505b600073ffffffffffffffffffffffffffffffffffffffff168273ffffffffffffffffffffffffffffffffffffffff1603610b725780600260008282540392505081905550610bbf565b806000808473ffffffffffffffffffffffffffffffffffffffff1673ffffffffffffffffffffffffffffffffffffffff168152602001908152602001600020600082825401925050819055505b8173ffffffffffffffffffffffffffffffffffffffff168373ffffffffffffffffffffffffffffffffffffffff167fddf252ad1be2c89b69c2b068fc378daa952ba7f163c4a11628f55a4df523b3ef83604051610c1c9190610df9565b60405180910390a3505050565b600081519050919050565b600082825260208201905092915050565b60005b83811015610c63578082015181840152602081019050610c48565b60008484015250505050565b6000601f19601f8301169050919050565b6000610c8b82610c29565b610c958185610c34565b9350610ca5818560208601610c45565b610cae81610c6f565b840191505092915050565b60006020820190508181036000830152610cd38184610c80565b905092915050565b600080fd5b600073ffffffffffffffffffffffffffffffffffffffff82169050919050565b6000610d0b82610ce0565b9050919050565b610d1b81610d00565b8114610d2657600080fd5b50565b600081359050610d3881610d12565b92915050565b6000819050919050565b610d5181610d3e565b8114610d5c57600080fd5b50565b600081359050610d6e81610d48565b92915050565b60008060408385031215610d8b57610d8a610cdb565b5b6000610d9985828601610d29565b9250506020610daa85828601610d5f565b9150509250929050565b60008115159050919050565b610dc981610db4565b82525050565b6000602082019050610de46000830184610dc0565b92915050565b610df381610d3e565b82525050565b6000602082019050610e0e6000830184610dea565b92915050565b600080600060608486031215610e2d57610e2c610cdb565b5b6000610e3b86828701610d29565b9350506020610e4c86828701610d29565b9250506040610e5d86828701610d5f565b9150509250925092565b600060ff82169050919050565b610e7d81610e67565b82525050565b6000602082019050610e986000830184610e74565b92915050565b600060208284031215610eb457610eb3610cdb565b5b6000610ec284828501610d29565b91505092915050565b610ed481610d00565b82525050565b6000602082019050610eef6000830184610ecb565b92915050565b60008060408385031215610f0c57610f0b610cdb565b5b6000610f1a85828601610d29565b9250506020610f2b85828601610d29565b9150509250929050565b7f4e487b7100000000000000000000000000000000000000000000000000000000600052602260045260246000fd5b60006002820490506001821680610f7c57607f821691505b602082108103610f8f57610f8e610f35565b5b50919050565b7f596f7520616c726561647920636c61696d65642e000000000000000000000000600082015250565b6000610fcb601483610c34565b9150610fd682610f95565b602082019050919050565b60006020820190508181036000830152610ffa81610fbe565b9050919050565b7f4e487b7100000000000000000000000000000000000000000000000000000000600052601160045260246000fd5b6000600282049050919050565b6000808291508390505b60018511156110875780860481111561106357611062611001565b5b60018516156110725780820291505b808102905061108085611030565b9450611047565b94509492505050565b6000826110a0576001905061115c565b816110ae576000905061115c565b81600181146110c457600281146110ce576110fd565b600191505061115c565b60ff8411156110e0576110df611001565b5b8360020a9150848211156110f7576110f6611001565b5b5061115c565b5060208310610133831016604e8410600b84101617156111325782820a90508381111561112d5761112c611001565b5b61115c565b61113f848484600161103d565b9250905081840481111561115657611155611001565b5b81810290505b9392505050565b600061116e82610d3e565b915061117983610e67565b92506111a67fffffffffffffffffffffffffffffffffffffffffffffffffffffffffffffffff8484611090565b905092915050565b60006111b982610d3e565b91506111c483610d3e565b92508282026111d281610d3e565b915082820484148315176111e9576111e8611001565b5b5092915050565b60006060820190506112056000830186610ecb565b6112126020830185610dea565b61121f6040830184610dea565b949350505050565b600061123282610d3e565b915061123d83610d3e565b925082820190508082111561125557611254611001565b5b9291505056fea2646970667358221220a5cf62a31ab1901b791296ac2ffab307179d06e8bf8eb2c0e23192ffd5ef1bca64736f6c63430008140033",
  "immutableReferences": {},
  "source": "// SPDX-License-Identifier: MIT\r\npragma solidity ^0.8.0;\r\n\r\nimport \"@openzeppelin/contracts/token/ERC20/ERC20.sol\";\r\n\r\ncontract TestToken is ERC20 {\r\n    address public owner;\r\n    mapping(address => bool) public hasClaimed;\r\n\r\n    constructor() ERC20(\"TestToken\", \"TST\") {\r\n        owner = msg.sender;\r\n        _mint(msg.sender, 1000000 * 10 ** decimals());\r\n    }\r\n\r\n    function faucet() external {\r\n        require(!hasClaimed[msg.sender], \"You already claimed.\");\r\n        _transfer(owner, msg.sender, 100 * 10 ** decimals());\r\n        hasClaimed[msg.sender] = true;\r\n    }\r\n}\r\n",
  "sourcePath": "C:\\Users\\Minahil Ashfaq\\OneDrive\\Desktop\\Salar_work\\Javascript\\blockchain\\token-faucet\\contracts\\TestToken.sol",
  "compiler": {
    "name": "solc",
    "version": "0.8.20+commit.a1b79de6.Emscripten.clang"
  },
  "schemaVersion": "3.4.16",
  "updatedAt": "2025-07-22T13:24:28.547Z",
  "networkType": "ethereum",
  "devdoc": {
    "errors": {
      "ERC20InsufficientAllowance(address,uint256,uint256)": [
        {
          "details": "Indicates a failure with the `spender`s `allowance`. Used in transfers.",
          "params": {
            "allowance": "Amount of tokens a `spender` is allowed to operate with.",
            "needed": "Minimum amount required to perform a transfer.",
            "spender": "Address that may be allowed to operate on tokens without being their owner."
          }
        }
      ],
      "ERC20InsufficientBalance(address,uint256,uint256)": [
        {
          "details": "Indicates an error related to the current `balance` of a `sender`. Used in transfers.",
          "params": {
            "balance": "Current balance for the interacting account.",
            "needed": "Minimum amount required to perform a transfer.",
            "sender": "Address whose tokens are being transferred."
          }
        }
      ],
      "ERC20InvalidApprover(address)": [
        {
          "details": "Indicates a failure with the `approver` of a token to be approved. Used in approvals.",
          "params": {
            "approver": "Address initiating an approval operation."
          }
        }
      ],
      "ERC20InvalidReceiver(address)": [
        {
          "details": "Indicates a failure with the token `receiver`. Used in transfers.",
          "params": {
            "receiver": "Address to which tokens are being transferred."
          }
        }
      ],
      "ERC20InvalidSender(address)": [
        {
          "details": "Indicates a failure with the token `sender`. Used in transfers.",
          "params": {
            "sender": "Address whose tokens are being transferred."
          }
        }
      ],
      "ERC20InvalidSpender(address)": [
        {
          "details": "Indicates a failure with the `spender` to be approved. Used in approvals.",
          "params": {
            "spender": "Address that may be allowed to operate on tokens without being their owner."
          }
        }
      ]
    },
    "events": {
      "Approval(address,address,uint256)": {
        "details": "Emitted when the allowance of a `spender` for an `owner` is set by a call to {approve}. `value` is the new allowance."
      },
      "Transfer(address,address,uint256)": {
        "details": "Emitted when `value` tokens are moved from one account (`from`) to another (`to`). Note that `value` may be zero."
      }
    },
    "kind": "dev",
    "methods": {
      "allowance(address,address)": {
        "details": "Returns the remaining number of tokens that `spender` will be allowed to spend on behalf of `owner` through {transferFrom}. This is zero by default. This value changes when {approve} or {transferFrom} are called."
      },
      "approve(address,uint256)": {
        "details": "See {IERC20-approve}. NOTE: If `value` is the maximum `uint256`, the allowance is not updated on `transferFrom`. This is semantically equivalent to an infinite approval. Requirements: - `spender` cannot be the zero address."
      },
      "balanceOf(address)": {
        "details": "Returns the value of tokens owned by `account`."
      },
      "decimals()": {
        "details": "Returns the number of decimals used to get its user representation. For example, if `decimals` equals `2`, a balance of `505` tokens should be displayed to a user as `5.05` (`505 / 10 ** 2`). Tokens usually opt for a value of 18, imitating the relationship between Ether and Wei. This is the default value returned by this function, unless it's overridden. NOTE: This information is only used for _display_ purposes: it in no way affects any of the arithmetic of the contract, including {IERC20-balanceOf} and {IERC20-transfer}."
      },
      "name()": {
        "details": "Returns the name of the token."
      },
      "symbol()": {
        "details": "Returns the symbol of the token, usually a shorter version of the name."
      },
      "totalSupply()": {
        "details": "Returns the value of tokens in existence."
      },
      "transfer(address,uint256)": {
        "details": "See {IERC20-transfer}. Requirements: - `to` cannot be the zero address. - the caller must have a balance of at least `value`."
      },
      "transferFrom(address,address,uint256)": {
        "details": "See {IERC20-transferFrom}. Skips emitting an {Approval} event indicating an allowance update. This is not required by the ERC. See {xref-ERC20-_approve-address-address-uint256-bool-}[_approve]. NOTE: Does not update the allowance if the current allowance is the maximum `uint256`. Requirements: - `from` and `to` cannot be the zero address. - `from` must have a balance of at least `value`. - the caller must have allowance for ``from``'s tokens of at least `value`."
      }
    },
    "version": 1
  },
  "userdoc": {
    "kind": "user",
    "methods": {},
    "version": 1
  }
}